{
  "contractName": "HelloWorld",
  "abi": [
    {
      "constant": true,
      "inputs": [],
      "name": "message",
      "outputs": [
        {
          "name": "",
          "type": "string"
        }
      ],
      "payable": false,
      "stateMutability": "view",
      "type": "function",
      "signature": "0xe21f37ce"
    },
    {
      "inputs": [],
      "payable": false,
      "stateMutability": "nonpayable",
      "type": "constructor",
      "signature": "constructor"
    }
  ],
  "bytecode": "0x608060405234801561001057600080fd5b50608060405190810160405280605381526020017f48656c6c6f20576f726c64203a2054686973206973206120536f6c696469747981526020017f20536d61727420436f6e7472616374206f6e207468652050726976617465204581526020017f7468657265756d20426c6f636b636861696e2100000000000000000000000000815250600090805190602001906100a99291906100af565b50610154565b828054600181600116156101000203166002900490600052602060002090601f016020900481019282601f106100f057805160ff191683800117855561011e565b8280016001018555821561011e579182015b8281111561011d578251825591602001919060010190610102565b5b50905061012b919061012f565b5090565b61015191905b8082111561014d576000816000905550600101610135565b5090565b90565b6101a0806101636000396000f3fe608060405260043610610041576000357c0100000000000000000000000000000000000000000000000000000000900463ffffffff168063e21f37ce14610046575b600080fd5b34801561005257600080fd5b5061005b6100d6565b6040518080602001828103825283818151815260200191508051906020019080838360005b8381101561009b578082015181840152602081019050610080565b50505050905090810190601f1680156100c85780820380516001836020036101000a031916815260200191505b509250505060405180910390f35b60008054600181600116156101000203166002900480601f01602080910402602001604051908101604052809291908181526020018280546001816001161561010002031660029004801561016c5780601f106101415761010080835404028352916020019161016c565b820191906000526020600020905b81548152906001019060200180831161014f57829003601f168201915b50505050508156fea165627a7a72305820fb9a9598723d66df3dd993e28a90833ac143935337fe189d1a89979385e3fa350029",
  "source": "pragma solidity >=0.4.21 <0.6.0;\r\n\r\ncontract HelloWorld {\r\n\r\n    string public message;\r\n    constructor() public{\r\n        message = \"Hello World : This is a Solidity Smart Contract on the Private Ethereum Blockchain!\";\r\n    }\r\n}\r\n\r\n",
  "sourcePath": "I:/materials(Blockchain and Digital Currency)/ethereum/truffle/contracts/helloworld.sol",
  "compiler": {
    "name": "solc",
    "version": "0.5.0+commit.1d4f565a.Emscripten.clang"
  },
  "schemaVersion": "3.0.1",
  "updatedAt": "2019-01-05T07:24:16.813Z",
  "devdoc": {
    "methods": {}
  },
  "userdoc": {
    "methods": {}
  }
}