{
  "contractName": "Bet",
  "abi": [
    {
      "constant": true,
      "inputs": [],
      "name": "ETHPool",
      "outputs": [
        {
          "name": "",
          "type": "uint256"
        }
      ],
      "payable": false,
      "stateMutability": "view",
      "type": "function",
      "signature": "0x99f771f0"
    },
    {
      "constant": true,
      "inputs": [],
      "name": "state",
      "outputs": [
        {
          "name": "",
          "type": "uint8"
        }
      ],
      "payable": false,
      "stateMutability": "view",
      "type": "function",
      "signature": "0xc19d93fb"
    },
    {
      "constant": true,
      "inputs": [],
      "name": "Maker",
      "outputs": [
        {
          "name": "",
          "type": "address"
        }
      ],
      "payable": false,
      "stateMutability": "view",
      "type": "function",
      "signature": "0xf67dfda9"
    },
    {
      "inputs": [],
      "payable": true,
      "stateMutability": "payable",
      "type": "constructor",
      "signature": "constructor"
    },
    {
      "anonymous": false,
      "inputs": [
        {
          "indexed": false,
          "name": "bettedAdress",
          "type": "address"
        },
        {
          "indexed": false,
          "name": "value",
          "type": "uint256"
        },
        {
          "indexed": false,
          "name": "blockNumber",
          "type": "uint256"
        }
      ],
      "name": "Betted",
      "type": "event",
      "signature": "0xcff17cd086384fb4d0e891da5ecbf7b914f94dba439a457bc3df38a295aef4f9"
    },
    {
      "constant": false,
      "inputs": [
        {
          "name": "start",
          "type": "uint256"
        },
        {
          "name": "end",
          "type": "uint256"
        }
      ],
      "name": "betting",
      "outputs": [],
      "payable": true,
      "stateMutability": "payable",
      "type": "function",
      "signature": "0x38bd71ac"
    },
    {
      "constant": false,
      "inputs": [],
      "name": "clear",
      "outputs": [],
      "payable": true,
      "stateMutability": "payable",
      "type": "function",
      "signature": "0x52efea6e"
    },
    {
      "constant": true,
      "inputs": [],
      "name": "getETHPool",
      "outputs": [
        {
          "name": "",
          "type": "uint256"
        }
      ],
      "payable": false,
      "stateMutability": "view",
      "type": "function",
      "signature": "0x44a37513"
    },
    {
      "constant": false,
      "inputs": [],
      "name": "closeBet",
      "outputs": [],
      "payable": false,
      "stateMutability": "nonpayable",
      "type": "function",
      "signature": "0xeaa968cc"
    },
    {
      "constant": true,
      "inputs": [],
      "name": "getUnclearBet",
      "outputs": [
        {
          "name": "",
          "type": "uint256"
        }
      ],
      "payable": false,
      "stateMutability": "view",
      "type": "function",
      "signature": "0xeb191807"
    },
    {
      "constant": true,
      "inputs": [],
      "name": "getHashSize",
      "outputs": [
        {
          "name": "",
          "type": "uint256"
        }
      ],
      "payable": false,
      "stateMutability": "view",
      "type": "function",
      "signature": "0x2df9bedd"
    }
  ],
  "bytecode": "0x608060405233600160006101000a81548173ffffffffffffffffffffffffffffffffffffffff021916908373ffffffffffffffffffffffffffffffffffffffff160217905550346000819055506000600160146101000a81548160ff0219169083600181111561006b57fe5b0217905550610cb38061007f6000396000f3fe608060405260043610610093576000357c0100000000000000000000000000000000000000000000000000000000900480632df9bedd1461009857806338bd71ac146100c357806344a37513146100fb57806352efea6e1461012657806399f771f014610130578063c19d93fb1461015b578063eaa968cc14610194578063eb191807146101ab578063f67dfda9146101d6575b600080fd5b3480156100a457600080fd5b506100ad61022d565b6040518082815260200191505060405180910390f35b6100f9600480360360408110156100d957600080fd5b810190808035906020019092919080359060200190929190505050610288565b005b34801561010757600080fd5b506101106106bf565b6040518082815260200191505060405180910390f35b61012e6106c8565b005b34801561013c57600080fd5b50610145610a01565b6040518082815260200191505060405180910390f35b34801561016757600080fd5b50610170610a07565b6040518082600181111561018057fe5b60ff16815260200191505060405180910390f35b3480156101a057600080fd5b506101a9610a1a565b005b3480156101b757600080fd5b506101c0610ba1565b6040518082815260200191505060405180910390f35b3480156101e257600080fd5b506101eb610c61565b604051808273ffffffffffffffffffffffffffffffffffffffff1673ffffffffffffffffffffffffffffffffffffffff16815260200191505060405180910390f35b600060f8600360003373ffffffffffffffffffffffffffffffffffffffff1673ffffffffffffffffffffffffffffffffffffffff168152602001908152602001600020600301544060019004908060020a8204915050905090565b6000600181111561029557fe5b600160149054906101000a900460ff1660018111156102b057fe5b141515610325576040517f08c379a000000000000000000000000000000000000000000000000000000000815260040180806020018281038252600c8152602001807f426574206e6f74206f70656e000000000000000000000000000000000000000081525060200191505060405180910390fd5b80821115151561039d576040517f08c379a00000000000000000000000000000000000000000000000000000000081526004018080602001828103825260188152602001807f7374617274206d757368206c657373207468616e20656e64000000000000000081525060200191505060405180910390fd5b816001111580156103af575060ff8111155b1515610449576040517f08c379a00000000000000000000000000000000000000000000000000000000081526004018080602001828103825260248152602001807f737461727420616e6420656e64206d757374206265747765656e203020616e6481526020017f203235350000000000000000000000000000000000000000000000000000000081525060400191505060405180910390fd5b600260fe633b9aca008484030281151561045f57fe5b040a670de0b6b3a764000003670de0b6b3a7640000013402600360003373ffffffffffffffffffffffffffffffffffffffff1673ffffffffffffffffffffffffffffffffffffffff1681526020019081526020016000206002018190555081600360003373ffffffffffffffffffffffffffffffffffffffff1673ffffffffffffffffffffffffffffffffffffffff1681526020019081526020016000206000018190555080600360003373ffffffffffffffffffffffffffffffffffffffff1673ffffffffffffffffffffffffffffffffffffffff1681526020019081526020016000206001018190555043600360003373ffffffffffffffffffffffffffffffffffffffff1673ffffffffffffffffffffffffffffffffffffffff168152602001908152602001600020600301819055506000600260003373ffffffffffffffffffffffffffffffffffffffff1673ffffffffffffffffffffffffffffffffffffffff16815260200190815260200160002060006101000a81548160ff021916908360018111156105ee57fe5b02179055507fcff17cd086384fb4d0e891da5ecbf7b914f94dba439a457bc3df38a295aef4f933670de0b6b3a7640000600360003373ffffffffffffffffffffffffffffffffffffffff1673ffffffffffffffffffffffffffffffffffffffff1681526020019081526020016000206002015481151561066a57fe5b0443604051808473ffffffffffffffffffffffffffffffffffffffff1673ffffffffffffffffffffffffffffffffffffffff168152602001838152602001828152602001935050505060405180910390a15050565b60008054905090565b60008060018111156106d657fe5b600260003373ffffffffffffffffffffffffffffffffffffffff1673ffffffffffffffffffffffffffffffffffffffff16815260200190815260200160002060009054906101000a900460ff16600181111561072e57fe5b1415156107a3576040517f08c379a000000000000000000000000000000000000000000000000000000000815260040180806020018281038252600e8152602001807f63616e6e6f7420646f207468697300000000000000000000000000000000000081525060200191505060405180910390fd5b600360003373ffffffffffffffffffffffffffffffffffffffff1673ffffffffffffffffffffffffffffffffffffffff1681526020019081526020016000206001015460f8600360003373ffffffffffffffffffffffffffffffffffffffff1673ffffffffffffffffffffffffffffffffffffffff168152602001908152602001600020600301544060019004908060020a8204915050111580156108dd5750600360003373ffffffffffffffffffffffffffffffffffffffff1673ffffffffffffffffffffffffffffffffffffffff1681526020019081526020016000206000015460f8600360003373ffffffffffffffffffffffffffffffffffffffff1673ffffffffffffffffffffffffffffffffffffffff168152602001908152602001600020600301544060019004908060020a820491505010155b1561097f573373ffffffffffffffffffffffffffffffffffffffff166108fc670de0b6b3a7640000600360003373ffffffffffffffffffffffffffffffffffffffff1673ffffffffffffffffffffffffffffffffffffffff1681526020019081526020016000206002015481151561095157fe5b049081150290604051600060405180830381858888f1935050505015801561097d573d6000803e3d6000fd5b505b3073ffffffffffffffffffffffffffffffffffffffff16316000819055506001600260003373ffffffffffffffffffffffffffffffffffffffff1673ffffffffffffffffffffffffffffffffffffffff16815260200190815260200160002060006101000a81548160ff021916908360018111156109f957fe5b021790555050565b60005481565b600160149054906101000a900460ff1681565b600160009054906101000a900473ffffffffffffffffffffffffffffffffffffffff1673ffffffffffffffffffffffffffffffffffffffff163373ffffffffffffffffffffffffffffffffffffffff16141515610adf576040517f08c379a00000000000000000000000000000000000000000000000000000000081526004018080602001828103825260178152602001807f4f6e6c79204d616b65722063616e20646f20746869732100000000000000000081525060200191505060405180910390fd5b60006001811115610aec57fe5b600160149054906101000a900460ff166001811115610b0757fe5b141515610b7c576040517f08c379a000000000000000000000000000000000000000000000000000000000815260040180806020018281038252600c8152602001807f426574206e6f74206f70656e000000000000000000000000000000000000000081525060200191505060405180910390fd5b60018060146101000a81548160ff02191690836001811115610b9a57fe5b0217905550565b6000806001811115610baf57fe5b600260003373ffffffffffffffffffffffffffffffffffffffff1673ffffffffffffffffffffffffffffffffffffffff16815260200190815260200160002060009054906101000a900460ff166001811115610c0757fe5b1415610c5757600360003373ffffffffffffffffffffffffffffffffffffffff1673ffffffffffffffffffffffffffffffffffffffff168152602001908152602001600020600301549050610c5e565b6001430190505b90565b600160009054906101000a900473ffffffffffffffffffffffffffffffffffffffff168156fea165627a7a723058204eeb9f0f5d700015edc8cb6e8b61c690bc7017633db77fe1ae447a95ecb341f60029",
  "source": "pragma solidity >=0.4.21 <0.6.0;\r\n\r\ncontract Bet {\r\n\r\n    struct Range {\r\n        uint start;\r\n        uint end;\r\n        uint bid;\r\n        uint blockNumber;\r\n    }\r\n\r\n    uint public ETHPool;\r\n    address public Maker;\r\n\r\n    enum State {Open, Close}\r\n    enum BetState {Betted, Clear}\r\n\r\n    State public state;\r\n\r\n    mapping (address => BetState) betState;\r\n    mapping(address => Range) bids;\r\n\r\n    event Betted(address bettedAdress, uint value, uint blockNumber);\r\n\r\n    modifier onlyMaker() {\r\n        require(msg.sender == Maker, \"Only Maker can do this!\");\r\n        _;\r\n    }\r\n\r\n    modifier onlyOpen() {\r\n        require(state == State.Open, \"Bet not open\");\r\n        _;\r\n    }\r\n\r\n    modifier onlyBetState(BetState inState) {\r\n        require(betState[msg.sender] == inState, \"cannot do this\");\r\n        _;\r\n    }\r\n\r\n    constructor() public payable {\r\n        Maker = msg.sender;\r\n        ETHPool = msg.value;\r\n        state = State.Open;\r\n    }\r\n\r\n    function betting(uint start, uint end) public payable onlyOpen {\r\n        require(start <= end, \"start mush less than end\");\r\n        require((1 <= start && end <= 255), \"start and end must between 0 and 255\");\r\n        \r\n        bids[msg.sender].bid = msg.value * (1000000000000000000 + (1000000000000000000 - ((end - start) * 1000000000 / 254) ** 2));\r\n        bids[msg.sender].start = start;\r\n        bids[msg.sender].end = end;\r\n        bids[msg.sender].blockNumber = block.number;\r\n        betState[msg.sender] = BetState.Betted;\r\n\r\n        emit Betted(msg.sender, bids[msg.sender].bid / 1000000000000000000, block.number);\r\n    }\r\n\r\n    function clear() public onlyBetState(BetState.Betted) payable{\r\n        if ((uint(blockhash(bids[msg.sender].blockNumber)) >> 248) <= bids[msg.sender].end && \r\n            (uint(blockhash(bids[msg.sender].blockNumber)) >> 248) >= bids[msg.sender].start) {\r\n            msg.sender.transfer(bids[msg.sender].bid / 1000000000000000000);\r\n        }\r\n        ETHPool = address(this).balance;\r\n        betState[msg.sender] = BetState.Clear;\r\n    }\r\n\r\n    function getETHPool() public view returns(uint) {\r\n        return ETHPool;\r\n    }\r\n\r\n    function closeBet() public onlyMaker onlyOpen {\r\n        state = State.Close;\r\n    }\r\n\r\n    function getUnclearBet() public view returns(uint){\r\n        if (betState[msg.sender] == BetState.Betted)\r\n            return bids[msg.sender].blockNumber;\r\n        else \r\n            return block.number + 1;\r\n    }\r\n\r\n    function getHashSize() public view returns(uint) {\r\n        return uint(blockhash(bids[msg.sender].blockNumber)) >> (248);\r\n    }\r\n}",
  "sourcePath": "I:/materials(Blockchain and Digital Currency)/ethereum/contracts/Bet.sol",
  "compiler": {
    "name": "solc",
    "version": "0.5.1+commit.c8a2cb62.Emscripten.clang"
  },
  "schemaVersion": "3.0.1",
  "updatedAt": "2019-01-17T11:12:07.380Z",
  "devdoc": {
    "methods": {}
  },
  "userdoc": {
    "methods": {}
  }
}